:020000040800F2
:10000000000003203505000891030008950300084F
:10001000990300089D030008A103000800000000E8
:10002000000000000000000000000000A503000820
:10003000A903000800000000AD030008B103000898
:100040008105000881050008810500088105000878
:100050008105000881050008810500088105000868
:100060008105000881050008810500088105000858
:100070008105000881050008810500088105000848
:100080008105000881050008810500088105000838
:100090008105000881050008810500088105000828
:1000A0008105000881050008810500088105000818
:1000B0008105000881050008810500088105000808
:1000C00081050008810500088105000881050008F8
:1000D00081050008810500088105000881050008E8
:1000E00081050008810500088105000881050008D8
:1000F00081050008810500088105000881050008C8
:1001000081050008810500088105000881050008B7
:1001100081050008810500088105000881050008A7
:100120008105000881050008810500088105000897
:100130008105000881050008810500088105000887
:100140008105000881050008810500088105000877
:100150008105000881050008810500088105000867
:100160008105000881050008810500088105000857
:100170008105000881050008810500088105000847
:100180008105000881050008810500088105000837
:100190008105000881050008810500088105000827
:0C01A000810500088105000881050008A9
:1001AC0000B54FF0640000BD54140008000000209E
:1001BC0024000020240000202400002008B510207A
:1001CC00012100F07FFD01200146BDE8084000F050
:1001DC0049BD00BF30B50F4C83B00023022220462E
:1001EC0069464FF4C0658DF806308DF807308DF8F0
:1001FC0004208DF80520009500F0D4FA2046092142
:10020C00072200F06DFB20460A21072200F068FB54
:10021C0003B030BD0000024030B50D4C85B000235A
:10022C000C22204669464FF4E135ADF80430ADF8A8
:10023C000630ADF80830ADF80C30ADF80A2000955A
:10024C0000F088FE2046012100F00AFF05B030BD09
:10025C000010014010B5037873B1441E074880218B
:10026C0000F0F6FF0028F9D014F8011F034800F045
:10027C002BFF6378002BF1D110BD00BF00100140A3
:10028C000FB4B0B5ADF51C5D84B000AF002142F2E7
:10029C001072384601F05AF842F20E7242F20D73A7
:1002AC0037213124B954FC54BD181348802100F077
:1002BC00CFFF0028F9D021460F4800F005FF15F8B4
:1002CC00014B002CF1D10D4D0D240B48802100F079
:1002DC00BFFF0028F9D02146074800F0F5FE15F8BD
:1002EC00014F002CF1D107F51C571037BD46BDE866
:1002FC00B04004B0704700BF001001400414000867
:10030C0010B5FFF75BFFFFF765FFFFF785FF184898
:10031C00FFF7A0FF1748FFF79DFF17481121FFF7C4
:10032C00AFFF1648FFF796FF1548202100F090FF0D
:10033C000028F9D0124800F0CBFEC0B20D280BD02B
:10034C0084B20F48802100F083FF0028F9D02146A9
:10035C000B4800F0B9FEE7E70948802100F078FF70
:10036C000028F9D006480D2100F0AEFE0A24E8E77B
:10037C00EC130008F8130008081400081014000807
:10038C0000100140704700BFFEE700BFFEE700BF52
:10039C00FEE700BFFEE700BF704700BF704700BF1D
:1003AC00704700BF704700BF3D4B3E4819680022A4
:1003BC0041F0010119609A60196821F0847121F4EF
:1003CC00803119605860196882B021F4802119605D
:1003DC00DA60009201921A6842F480321A601A466E
:1003EC0003E0009BB3F5A04F09D0136803F400336E
:1003FC000193009B01330093019B002BF1D0284B00
:10040C001B6813F4003318BF01230193019B012BCC
:10041C0042D0234A244B116C41F08051116419686D
:10042C0041F44041196093689360936843F400432E
:10043C009360936843F4A0539360136843F0807304
:10044C00136013689B01FCD517490B6843F4803388
:10045C000B604B68144AD803FBD5136843F4003384
:10046C00136053689B03FCD5104B0D4A40F2057189
:10047C001960936823F003039360936843F00203BD
:10048C009360936803F00C03082BFAD1084B4FF0E0
:10049C0000629A6002B07047014B064A5A60B8E796
:1004AC00003802401030002400700040003C024034
:1004BC0000ED00E0085A4007164B9A6802F00C0257
:1004CC00042A24D0082A0AD0134A124B13489968DC
:1004DC00134BC1F30311415CCA401A607047586852
:1004EC0059685B6842024CBF0E4A0B4A01F03F014F
:1004FC00C3F38813B2FBF1F202FB03F2054B5B680A
:10050C00C3F3014301335B00B2FBF3F2DDE7054AB1
:10051C00DBE700BF003802400024F400000000209C
:10052C001000002000127A00002100F004B80C4BDF
:10053C005B58435004310B480B4B42189A42FFF462
:10054C00F6AF0A4A00F003B8002342F8043B084B0C
:10055C009A42FFF4F9AFFFF727FFFFF7D1FE704780
:10056C005414000800000020240000202400002067
:10057C0024000020FFF7FEBF40F0BF60024B40F4A8
:10058C000030D860704700BF00ED00E0C378F0B4D5
:10059C0063B90378194A5909203103F01F0301206C
:1005AC0000FA03F342F82130F0BC7047144B477843
:1005BC00DA68857803781149D243C2F30222C2F17A
:1005CC0004040F26E4B207FA04F446FA02F2E4B289
:1005DC002A40224303F1604303F561431201D2B276
:1005EC0083F800230378012003F01F025B0900FA53
:1005FC0002F241F82320F0BC704700BF00E100E09C
:10060C0000ED00E021F0604121F07F01014B084337
:10061C009860704700ED00E0044B1A6919B922EAA2
:10062C0000001861704710431861704700ED00E03E
:10063C00044B1A6804280CBF42F0040222F0040296
:10064C001A60704710E000E008B54B4B98422AD076
:10065C004A4B984231D04A4B984238D0494B984239
:10066C003FD0494B984246D0484B98424DD0484BCE
:10067C00984254D0474B98425BD0474B984262D03B
:10068C00464B98426BD0464B984200D008BD4FF475
:10069C008060012100F022FB4FF480600021BDE856
:1006AC00084000F01BBB0120014600F017FB0120A5
:1006BC000021BDE8084000F011BB0220012100F030
:1006CC000DFB02200021BDE8084000F007BB042010
:1006DC00012100F003FB04200021BDE8084000F0DC
:1006EC00FDBA0820012100F0F9FA08200021BDE82C
:1006FC00084000F0F3BA1020012100F0EFFA1020AE
:10070C000021BDE8084000F0E9BA2020012100F0EA
:10071C00E5FA20200021BDE8084000F0DFBA4020B7
:10072C00012100F0DBFA40200021BDE8084000F078
:10073C00D5BA8020012100F0D1FA80200021BDE83B
:10074C00084000F0CBBA4FF48070012100F0C6FADB
:10075C004FF480700021BDE8084000F0BFBA4FF4A0
:10076C000070012100F0BAFA4FF400700021BDE8CE
:10077C00084000F0B3BA00BF000002400004024081
:10078C0000080240000C024000100240001402401D
:10079C0000180240001C02400020024000240240CD
:1007AC000028024000222DE9F00713460E680127AD
:1007BC004FF0030804E00133102B02F102022CD09D
:1007CC0007FA03F404EA0605A542F4D1D0F8009028
:1007DC0091F804C008FA02F4E44304EA0909C0F8E9
:1007EC000090D0F800900CFA02FA0CF1FF3C4AEAA7
:1007FC000909BCF1010FC0F8009011D9C56891F836
:10080C0007C02C40C460C5680CFA02F401332C43B9
:10081C00102BC46002F10202D2D1BDE8F007704780
:10082C00D0F808A091F8059091F806C004EA0A0ADD
:10083C00C0F808A0D0F808A009FA02F949EA0A0998
:10084C00C0F80890D0F8049029EA05054560456881
:10085C000CFA03FC1FFA8CFC4CEA05054560CDE74D
:10086C0000234FF6FF720260037143718371C371F1
:10087C00704700BF82B04FF480330193019B0B4350
:10088C000193019BC361C161019BC361C369019366
:10089C00C369019302B07047036919420CBF002071
:1008AC0001207047006980B2704700BF436919424C
:1008BC000CBF002001207047406980B2704700BF18
:1008CC0001837047418370470AB9418370470183A4
:1008DC00704700BF4161704743695940416170479F
:1008EC00CB0800EB830001F0070110B48900046A07
:1008FC000F238B4024EA03030362036A5DF8044B65
:10090C008A401343036270470F4B1048196800224A
:10091C0041F0010130B419609A6019680C4D0D4C0E
:10092C0021F0A85121F4102119605D60C3F88440B6
:10093C00C3F88800196821F48021196030BCDA6092
:10094C00C3F88C20704700BF0038024000300024F0
:10095C001030002400300020024B00221A70187056
:10096C00704700BF0238024082B000230B4A01934B
:10097C0013689B030CD4019B01330193019BB3F5CA
:10098C00A04FF5D1054B1868C0F3404002B070473A
:10099C00019B01330193019BF4E700BF0038024037
:1009AC00034B1A6822F0F80242EAC0001860704744
:1009BC0000380240014B1860704700BF00004742EE
:1009CC00064B002201281A701A7005D0042802D197
:1009DC0005221A70704770471870704770380240C3
:1009EC00014B1860704700BF800E474230B4029C28
:1009FC00064D40EA04605B080143013B41EA821268
:100A0C0042EA03436B6030BC704700BF00380240C1
:100A1C00014B1860704700BF60004742120742EA62
:100A2C000161034B41EA8010C3F88400704700BF9A
:100A3C0000380240014B1860704700BF6800474205
:100A4C00120742EA0161034B41EA8010C3F88800A7
:100A5C00704700BF00380240014B1860704700BF60
:100A6C0070004742014B1860704700BF4C00474272
:100A7C00034B9A6822F0EC6211430843986070476C
:100A8C0000380240034B9A6822F078421143084325
:100A9C009860704700380240034B9A6822F00302BA
:100AAC0010439860704700BF00380240024B9868B2
:100ABC0000F00C00704700BF00380240034B9A68EE
:100ACC0022F0F00210439860704700BF00380240DB
:100ADC00034B9A6822F4E05210439860704700BFB1
:100AEC0000380240034B9A6822F4604242EAC0008C
:100AFC0098607047003802401F4A936803F00C035B
:100B0C00042B10B41BD0082B1CD01C4B03601A49AF
:100B1C001B4A8C68C4F30314145DE34043608C6877
:100B2C00C4F38224145D23FA04F4846089685DF8AC
:100B3C00044BC1F34231525CD340C3607047114B3C
:100B4C000360E4E754685168526863024CBF0D4B74
:100B5C000A4B01F03F01C2F38812B3FBF1F303FB24
:100B6C0002F3054A5268C2F3014201325200B3FB50
:100B7C00F2F30360CBE700BF003802400024F4001E
:100B8C001400002000127A0000F44073B3F5407F8B
:100B9C0009D1084A916820F0704321F4F81123F42C
:100BAC0040730B439360034B1A6FC0F30B0010435D
:100BBC001867704700380240014B1860704700BF3F
:100BCC003C0E4742014B1860704700BF400E474235
:100BDC00014B1860704700BF5C014742044BD3F8CF
:100BEC008C20013822F01F020243C3F88C2070477E
:100BFC0000380240054BD3F88C20013822F4F8520F
:100C0C0042EA0022C3F88C20704700BF0038024033
:100C1C00044BD3F88C2022F440121043C3F88C0000
:100C2C00704700BF00380240044BD3F88C2022F4EC
:100C3C0040021043C3F88C00704700BF00380240DC
:100C4C00044BD3F88C2022F440321043C3F88C00B0
:100C5C00704700BF00380240014B1860704700BF5E
:100C6C00E0114742044B1A6B19B922EA00001863D1
:100C7C00704710431863704700380240044B5A6B9E
:100C8C0019B922EA00005863704710435863704743
:100C9C0000380240044B9A6B19B922EA00009863A1
:100CAC00704710439863704700380240044B1A6C2D
:100CBC0019B922EA00001864704710431864704791
:100CCC0000380240044B5A6C19B922EA00005864EF
:100CDC00704710435864704700380240044B1A693F
:100CEC0019B922EA00001861704710431861704767
:100CFC0000380240044B5A6919B922EA00005861C5
:100D0C00704710435861704700380240044B9A6991
:100D1C0019B922EA00009861704710439861704736
:100D2C0000380240044B1A6A19B922EA0000186212
:100D3C00704710431862704700380240044B5A6ADF
:100D4C0019B922EA00005862704710435862704784
:100D5C0000380240044B1A6D19B922EA00001865DC
:100D6C00704710431865704700380240044B5A6DA9
:100D7C0019B922EA0000586570471043586570474E
:100D8C0000380240044B9A6D19B922EA00009865AC
:100D9C00704710439865704700380240044B1A6E38
:100DAC0019B922EA0000186670471043186670479C
:100DBC0000380240044B5A6E19B922EA00005866FA
:100DCC00704710435866704700380240044B1A783D
:100DDC0019B922EA00001870704710431870704758
:100DEC000D3802404309012B0BD0022B094B0CBFD1
:100DFC001B6F5B6F00F01F0023FA00F000F0010086
:100E0C007047044B1B6800F01F0023FA00F000F041
:100E1C000100704700380240024B5A6F42F080725A
:100E2C005A67704700380240034BDB6818420CBF0E
:100E3C0000200120704700BF00380240014B1870A1
:100E4C00704700BF0E38024008B53A4B984221D08B
:100E5C00394B984228D0394B984231D0384B984274
:100E6C003AD0384B984243D0374B98424CD0374B02
:100E7C00984253D0364B984200D008BD4FF00040FA
:100E8C000121FFF74FFF4FF000400021BDE8084063
:100E9C00FFF748BF10200121FFF750FF1020002161
:100EAC00BDE80840FFF74ABF4FF400300121FFF7BF
:100EBC0039FF4FF400300021BDE80840FFF732BF86
:100ECC004FF480200121FFF72DFF4FF480200021EB
:100EDC00BDE80840FFF726BF4FF400200121FFF7C3
:100EEC0021FF4FF400200021BDE80840FFF71ABF96
:100EFC004FF480100121FFF715FF4FF480100021F3
:100F0C00BDE80840FFF70EBF20200121FFF716FFB8
:100F1C0020200021BDE80840FFF710BF4FF08040B3
:100F2C000121FFF7FFFE4FF080400021BDE8084093
:100F3C00FFF7F8BE0010014000440040004800409C
:100F4C00004C00400050004000140140007800406C
:100F5C00007C0040F0B50D46018AEF882E89AB88E5
:100F6C00AA8989B2044621F4405139436889218207
:100F7C00A189334389B2034321F4B05121F00C0110
:100F8C009BB20B43A381A38A9BB223F440731343FC
:100F9C0085B0A3826846FFF7AFFD1D4B9C4229D05C
:100FAC0003F580639C4225D0029BA2892968A08905
:100FBC0012B2002A03EB8303B4BF4900890003EB90
:100FCC008303B3FBF1F2134900B2A1FB02535B099B
:100FDC006425002803FB15224FEA03130CDB1201D6
:100FEC003232A1FB0251C1F343110B439BB223815B
:100FFC0005B0F0BD039BD8E7D2003232A1FB020151
:10100C00C1F342110B439BB2238105B0F0BD00BF6D
:10101C00001001401F85EB5100234FF416510C2298
:10102C00016042818380C38003818381704700BF4C
:10103C0030B40A884D888C88038AC9882A43224395
:10104C000A439BB292B223F470631343038230BC05
:10105C00704700BF0023038043808380C3807047A8
:10106C00838929B923F400531B041B0C838170471B
:10107C009BB243F400538381704700BF038B03F48E
:10108C007F430383038B9BB219430183704700BFDB
:10109C00838919B9C3F30E03838170476FEA434305
:1010AC006FEA53439BB28381704700BF838A29B98F
:1010BC0023F400631B041B0C838270479BB243F424
:1010CC0000638382704700BFC1F3080181807047C1
:1010DC008088C0F308007047038A23F00F031B04B9
:1010EC001B0C0382038A9BB219430182704700BF19
:1010FC00838929B923F002031B041B0C83817047DD
:10110C009BB243F002038381704700BF838923F4B1
:10111C0000631B041B0C838183899BB2194381815F
:10112C00704700BF038A23F020031B041B0C0382AF
:10113C00038A9BB219430182704700BF038A29B905
:10114C0023F480431B041B0C038270479BB243F4B3
:10115C0080430382704700BF83899BB243F0010335
:10116C0083817047838A29B923F008031B041B0C65
:10117C00838270479BB243F008038382704700BFA1
:10118C00038BDBB20383038B9BB243EA0121018304
:10119C00704700BF838A29B923F020031B041B0C62
:1011AC00838270479BB243F020038382704700BF59
:1011BC00838A29B923F010031B041B0C838270470C
:1011CC009BB243F010038382704700BF838A23F0E5
:1011DC0004031B041B0C8382838A9BB219438182F8
:1011EC00704700BF838A29B923F002031B041B0C30
:1011FC00838270479BB243F002038382704700BF27
:10120C00838A9BB21AB923EA010181827047194380
:10121C008182704701F01F0310B4C1F34211012405
:10122C00A14204FA03F310D002290CBF1030143081
:10123C0004682AB924EA030303605DF8044B704781
:10124C00234303605DF8044B70470C30F0E700BF9C
:10125C00038819420CBF002001207047C94389B292
:10126C000180704710B4C1F34213012401F01F0236
:10127C00A34204FA02F217D0022B0CBF038A838A12
:10128C009BB21340028892B253B1090A012303FAAC
:10129C0001F111420CBF002001205DF8044B704796
:1012AC0018465DF8044B704783899BB21340E9E7FD
:1012BC00090A012303FA01F1C94389B2018070477D
:1012CC0008B54FF480400121FFF738FD4FF4804002
:1012DC000021BDE80840FFF731BD00BF014B18608D
:1012EC00704700BF00380140014B1860704700BFC9
:1012FC002000274201F0FC0303F1804303F59C33EB
:10130C0001F0030110B489009C680F228A4024EA82
:10131C0002029A609A685DF8044B884002439A6016
:10132C00704700BF014B1860704700BFDC002742BC
:10133C00014B1860704700BF00042742024B186A2B
:10134C00C0F30020704700BF00380140F0B48407A0
:10135C0043D0541E002A3ED0CDB2034603E0621E99
:10136C00002C38D0144603F8015B9A07F7D1032CF4
:10137C002AD9CDB245EA05250F2C45EA054515D9E4
:10138C00A4F110073F0903F1100606EB07161A46E5
:10139C00156055609560D5601032B242F8D104F0FA
:1013AC000F040137032C03EB07130DD91E462246FD
:1013BC00043A032A46F8045BFAD8221F22F00302EF
:1013CC000432134404F003042CB1C9B21C4403F8D6
:1013DC00011BA342FBD1F0BC704714460346C6E781
:1013EC0054657374696E67210D0A000048656C6C56
:1013FC006F20576F726C64210D0A00007465737452
:10140C00000000004A75737420666F722053544DAF
:10141C003332463432394920446973636F766572CE
:10142C007920766572696679205553415254312082
:10143C0077697468205553422054544C20436162A0
:08144C006C650D0A00000000B0
:101454000000000000000000010203040607080960
:101464000095BA0A0000000001020304010203040B
:041474000607080956
:0400000508000535B5
:00000001FF
